:1001F900041500000000021A0000021D000001138E
:1002090000011200011900011400011100C100C10F
:0402190001011000CF
:0C000E007FC87EC87D16DDFEDEFADFF63E
:01001A0022C3
:0C026F007FC87EC87D0DDDFEDEFADFF6E4
:01027B002260
:10023F00758911758801758C3C758AB0E4F58DF55B
:0D024F008BD2AFD2A9D2ABD2A875B80122D4
:0300030002001EDA
:07001E00C0E0C0D075D0085E
:10002500C28E858D1C858B1F758D00758B00D28EBC
:10003500AF1C751D008F1EE51E751E00F51DAF1F3B
:10004500EF421ED3E51E94F4E51D94334019E51ED9
:100055009484E51D9435500F7510017518007517BA
:1000650000751600751500E510C39422506AE51E4B
:1000750094E8E51D94034023E51E9414E51D9405BD
:100085005019AF18AE17AD16AC158F188E178D1603
:100095008C15E510C394215064802ED3E51E94D0B1
:1000A500E51D94074057E51E9492E51D9409504DB2
:1000B500E518F518E517F517E516F516E515448065
:1000C500F515E510C394215034AF18AE17AD16AC35
:1000D50015780112025C801DD3E51E94F8E51D9488
:1000E5002A401AE51E94ECE51D942C5010AF18AE6D
:1000F50017AD16AC158F188E178D168C150510E5D6
:0801050010B42204D200C28EE6
:05010D00D0D0D0E0326B
:03000B00020009E7
:0100090032C4
:03001B00020006DA
:03000600051132AF
:10019E0012023FD297300049AE17AF188E1A8F1B3E
:1001AE00AF18AE17AD16AC15781012025C8F19AFE2
:1001BE0018AE17AD16AC15781812025C8F14E51B2D
:1001CE0064807003E51AF46014E514F46519600D8B
:1001DE00C201E4F518F517F516F5158002D201C225
:0B01EE00003001B1AF1912028680AA98
:0A027C00C0F9A4B0999282F88090B6
:10021E00AE07C287E4FDC285EE339284EE25E0FE82
:10022E00D2850DBD08F0C285EF339284D285D28778
:01023E00229D
:0802860012021ED2A7C2A6223B
:03000000020112E8
:0C011200787FE4F6D8FD758120020159C9
:10025C00E8600FECC313FCED13FDEE13FEEF13FF80
:03026C00D8F122A4
:10011E0002019EE493A3F8E493A34003F68001F258
:10012E0008DFF48029E493A3F85407240CC8C333E2
:10013E00C4540F4420C8834004F456800146F6DFB1
:10014E00E4800B01020408102040809001F9E47E47
:10015E00019360BCA3FF543F30E509541FFEE493A6
:10016E00A360010ECF54C025E060A840B8E493A36D
:10017E00FAE493A3F8E493A3C8C582C8CAC583CA98
:10018E00F0A3C8C582C8CAC583CADFE9DEE780BE50
:01021D0000E0
:00000001FF
